{
  "contractName": "AIMarketPlace",
  "abi": [
    {
      "inputs": [],
      "stateMutability": "nonpayable",
      "type": "constructor"
    },
    {
      "inputs": [
        {
          "internalType": "uint256",
          "name": "",
          "type": "uint256"
        }
      ],
      "name": "allModels",
      "outputs": [
        {
          "internalType": "string",
          "name": "",
          "type": "string"
        }
      ],
      "stateMutability": "view",
      "type": "function"
    },
    {
      "inputs": [
        {
          "internalType": "string",
          "name": "",
          "type": "string"
        }
      ],
      "name": "modelUseCount",
      "outputs": [
        {
          "internalType": "uint256",
          "name": "",
          "type": "uint256"
        }
      ],
      "stateMutability": "view",
      "type": "function"
    },
    {
      "inputs": [],
      "name": "totalModel",
      "outputs": [
        {
          "internalType": "uint256",
          "name": "_value",
          "type": "uint256"
        }
      ],
      "stateMutability": "view",
      "type": "function"
    },
    {
      "inputs": [
        {
          "internalType": "string",
          "name": "_modelname",
          "type": "string"
        },
        {
          "internalType": "string",
          "name": "_cid",
          "type": "string"
        },
        {
          "internalType": "uint256",
          "name": "_fee",
          "type": "uint256"
        },
        {
          "internalType": "address",
          "name": "_verifier",
          "type": "address"
        }
      ],
      "name": "createModel",
      "outputs": [],
      "stateMutability": "nonpayable",
      "type": "function"
    },
    {
      "inputs": [
        {
          "internalType": "string",
          "name": "_modelname",
          "type": "string"
        },
        {
          "internalType": "string",
          "name": "_uuid",
          "type": "string"
        }
      ],
      "name": "useModel",
      "outputs": [],
      "stateMutability": "payable",
      "type": "function"
    },
    {
      "inputs": [
        {
          "internalType": "string",
          "name": "_uuid",
          "type": "string"
        },
        {
          "internalType": "uint256",
          "name": "_newCredit",
          "type": "uint256"
        }
      ],
      "name": "buyCredit",
      "outputs": [],
      "stateMutability": "payable",
      "type": "function"
    },
    {
      "inputs": [
        {
          "internalType": "address",
          "name": "_creator",
          "type": "address"
        }
      ],
      "name": "getCreatorModel",
      "outputs": [
        {
          "internalType": "string[]",
          "name": "",
          "type": "string[]"
        }
      ],
      "stateMutability": "view",
      "type": "function"
    },
    {
      "inputs": [
        {
          "internalType": "address",
          "name": "_user",
          "type": "address"
        }
      ],
      "name": "getUserModel",
      "outputs": [
        {
          "internalType": "string[]",
          "name": "",
          "type": "string[]"
        }
      ],
      "stateMutability": "view",
      "type": "function"
    },
    {
      "inputs": [
        {
          "internalType": "string",
          "name": "_uuid",
          "type": "string"
        }
      ],
      "name": "getDetailsUUID",
      "outputs": [
        {
          "components": [
            {
              "internalType": "string",
              "name": "modelname",
              "type": "string"
            },
            {
              "internalType": "uint256",
              "name": "onChainRequest",
              "type": "uint256"
            },
            {
              "internalType": "uint256",
              "name": "offChainRequest",
              "type": "uint256"
            },
            {
              "internalType": "uint256",
              "name": "totalRequest",
              "type": "uint256"
            },
            {
              "internalType": "uint256",
              "name": "totalAmount",
              "type": "uint256"
            },
            {
              "internalType": "bool",
              "name": "status",
              "type": "bool"
            }
          ],
          "internalType": "struct AIMarketPlace.modelUse",
          "name": "",
          "type": "tuple"
        }
      ],
      "stateMutability": "view",
      "type": "function"
    },
    {
      "inputs": [
        {
          "internalType": "string",
          "name": "_modelname",
          "type": "string"
        }
      ],
      "name": "getModel",
      "outputs": [
        {
          "components": [
            {
              "internalType": "string",
              "name": "modelname",
              "type": "string"
            },
            {
              "internalType": "string",
              "name": "cid",
              "type": "string"
            },
            {
              "internalType": "uint256",
              "name": "fee",
              "type": "uint256"
            },
            {
              "internalType": "address",
              "name": "verifier",
              "type": "address"
            },
            {
              "internalType": "address",
              "name": "creator",
              "type": "address"
            },
            {
              "internalType": "bool",
              "name": "status",
              "type": "bool"
            }
          ],
          "internalType": "struct AIMarketPlace.model",
          "name": "",
          "type": "tuple"
        }
      ],
      "stateMutability": "view",
      "type": "function"
    },
    {
      "inputs": [
        {
          "internalType": "uint256",
          "name": "_creditrate",
          "type": "uint256"
        }
      ],
      "name": "updateCreditRate",
      "outputs": [],
      "stateMutability": "nonpayable",
      "type": "function"
    }
  ],
  "bytecode": "0x608060405234801561001057600080fd5b5033600160006101000a81548173ffffffffffffffffffffffffffffffffffffffff021916908373ffffffffffffffffffffffffffffffffffffffff160217905550655af3107a4000600281905550611e498061006e6000396000f3fe60806040526004361061009c5760003560e01c806364b820241161006457806364b82024146101d257806373f5eef3146101fb578063b13394bf14610224578063c1be512c14610240578063f8fcde711461026b578063fab57404146102875761009c565b806308e421cd146100a1578063243575b2146100de5780633e21491a1461011b57806349e1ae48146101585780634e76565b14610195575b600080fd5b3480156100ad57600080fd5b506100c860048036038101906100c39190611210565b6102c4565b6040516100d59190611398565b60405180910390f35b3480156100ea57600080fd5b5061010560048036038101906101009190611210565b6103df565b6040516101129190611398565b60405180910390f35b34801561012757600080fd5b50610142600480360381019061013d91906113f0565b6104fa565b60405161014f9190611467565b60405180910390f35b34801561016457600080fd5b5061017f600480360381019061017a91906115be565b6105a6565b60405161018c91906116ba565b60405180910390f35b3480156101a157600080fd5b506101bc60048036038101906101b791906115be565b6106b3565b6040516101c991906116eb565b60405180910390f35b3480156101de57600080fd5b506101f960048036038101906101f491906113f0565b6106e1565b005b34801561020757600080fd5b50610222600480360381019061021d9190611706565b61077b565b005b61023e600480360381019061023991906117a5565b610a21565b005b34801561024c57600080fd5b50610255610b60565b60405161026291906116eb565b60405180910390f35b61028560048036038101906102809190611801565b610b6c565b005b34801561029357600080fd5b506102ae60048036038101906102a991906115be565b610e1c565b6040516102bb9190611918565b60405180910390f35b6060600560008373ffffffffffffffffffffffffffffffffffffffff1673ffffffffffffffffffffffffffffffffffffffff168152602001908152602001600020600001805480602002602001604051908101604052809291908181526020016000905b828210156103d457838290600052602060002001805461034790611969565b80601f016020809104026020016040519081016040528092919081815260200182805461037390611969565b80156103c05780601f10610395576101008083540402835291602001916103c0565b820191906000526020600020905b8154815290600101906020018083116103a357829003601f168201915b505050505081526020019060010190610328565b505050509050919050565b6060600460008373ffffffffffffffffffffffffffffffffffffffff1673ffffffffffffffffffffffffffffffffffffffff168152602001908152602001600020600001805480602002602001604051908101604052809291908181526020016000905b828210156104ef57838290600052602060002001805461046290611969565b80601f016020809104026020016040519081016040528092919081815260200182805461048e90611969565b80156104db5780601f106104b0576101008083540402835291602001916104db565b820191906000526020600020905b8154815290600101906020018083116104be57829003601f168201915b505050505081526020019060010190610443565b505050509050919050565b6003818154811061050a57600080fd5b90600052602060002001600091509050805461052590611969565b80601f016020809104026020016040519081016040528092919081815260200182805461055190611969565b801561059e5780601f106105735761010080835404028352916020019161059e565b820191906000526020600020905b81548152906001019060200180831161058157829003601f168201915b505050505081565b6105ae61105f565b6006826040516105be91906119d7565b90815260200160405180910390206040518060c00160405290816000820180546105e790611969565b80601f016020809104026020016040519081016040528092919081815260200182805461061390611969565b80156106605780601f1061063557610100808354040283529160200191610660565b820191906000526020600020905b81548152906001019060200180831161064357829003601f168201915b50505050508152602001600182015481526020016002820154815260200160038201548152602001600482015481526020016005820160009054906101000a900460ff1615151515815250509050919050565b6008818051602081018201805184825260208301602085012081835280955050505050506000915090505481565b3373ffffffffffffffffffffffffffffffffffffffff16600160009054906101000a900473ffffffffffffffffffffffffffffffffffffffff1673ffffffffffffffffffffffffffffffffffffffff1614610771576040517f08c379a000000000000000000000000000000000000000000000000000000000815260040161076890611a60565b60405180910390fd5b8060028190555050565b60078460405161078b91906119d7565b908152602001604051809103902060040160149054906101000a900460ff16156107ea576040517f08c379a00000000000000000000000000000000000000000000000000000000081526004016107e190611af2565b60405180910390fd5b6040518060c001604052808581526020018481526020018381526020018273ffffffffffffffffffffffffffffffffffffffff1681526020013373ffffffffffffffffffffffffffffffffffffffff1681526020016001151581525060078560405161085691906119d7565b90815260200160405180910390206000820151816000019080519060200190610880929190611097565b50602082015181600101908051906020019061089d929190611097565b506040820151816002015560608201518160030160006101000a81548173ffffffffffffffffffffffffffffffffffffffff021916908373ffffffffffffffffffffffffffffffffffffffff16021790555060808201518160040160006101000a81548173ffffffffffffffffffffffffffffffffffffffff021916908373ffffffffffffffffffffffffffffffffffffffff16021790555060a08201518160040160146101000a81548160ff021916908315150217905550905050600460003373ffffffffffffffffffffffffffffffffffffffff1673ffffffffffffffffffffffffffffffffffffffff168152602001908152602001600020600001849080600181540180825580915050600190039060005260206000200160009091909190915090805190602001906109d4929190611097565b50600384908060018154018082558091505060019003906000526020600020016000909190919091509080519060200190610a10929190611097565b50610a1b6000611049565b50505050565b600682604051610a3191906119d7565b908152602001604051809103902060050160009054906101000a900460ff16610a8f576040517f08c379a0000000000000000000000000000000000000000000000000000000008152600401610a8690611b84565b60405180910390fd5b60025481610a9d9190611bd3565b341015610adf576040517f08c379a0000000000000000000000000000000000000000000000000000000008152600401610ad690611c9f565b60405180910390fd5b80600683604051610af091906119d7565b90815260200160405180910390206003016000828254610b109190611cbf565b9250508190555060025481610b259190611bd3565b600683604051610b3591906119d7565b90815260200160405180910390206004016000828254610b559190611cbf565b925050819055505050565b60008060000154905081565b600681604051610b7c91906119d7565b908152602001604051809103902060050160009054906101000a900460ff1615610bdb576040517f08c379a0000000000000000000000000000000000000000000000000000000008152600401610bd290611d87565b60405180910390fd5b600782604051610beb91906119d7565b908152602001604051809103902060040160149054906101000a900460ff16610c49576040517f08c379a0000000000000000000000000000000000000000000000000000000008152600401610c4090611b84565b60405180910390fd5b34600783604051610c5a91906119d7565b90815260200160405180910390206002015414610cac576040517f08c379a0000000000000000000000000000000000000000000000000000000008152600401610ca390611df3565b60405180910390fd5b6040518060c001604052808381526020016000815260200160008152602001600a81526020016000815260200160011515815250600682604051610cf091906119d7565b90815260200160405180910390206000820151816000019080519060200190610d1a929190611097565b506020820151816001015560408201518160020155606082015181600301556080820151816004015560a08201518160050160006101000a81548160ff0219169083151502179055509050506001600883604051610d7891906119d7565b90815260200160405180910390206000828254610d959190611cbf565b92505081905550600560003373ffffffffffffffffffffffffffffffffffffffff1673ffffffffffffffffffffffffffffffffffffffff16815260200190815260200160002060000181908060018154018082558091505060019003906000526020600020016000909190919091509080519060200190610e17929190611097565b505050565b610e2461111d565b600782604051610e3491906119d7565b90815260200160405180910390206040518060c0016040529081600082018054610e5d90611969565b80601f0160208091040260200160405190810160405280929190818152602001828054610e8990611969565b8015610ed65780601f10610eab57610100808354040283529160200191610ed6565b820191906000526020600020905b815481529060010190602001808311610eb957829003601f168201915b50505050508152602001600182018054610eef90611969565b80601f0160208091040260200160405190810160405280929190818152602001828054610f1b90611969565b8015610f685780601f10610f3d57610100808354040283529160200191610f68565b820191906000526020600020905b815481529060010190602001808311610f4b57829003601f168201915b50505050508152602001600282015481526020016003820160009054906101000a900473ffffffffffffffffffffffffffffffffffffffff1673ffffffffffffffffffffffffffffffffffffffff1673ffffffffffffffffffffffffffffffffffffffff1681526020016004820160009054906101000a900473ffffffffffffffffffffffffffffffffffffffff1673ffffffffffffffffffffffffffffffffffffffff1673ffffffffffffffffffffffffffffffffffffffff1681526020016004820160149054906101000a900460ff1615151515815250509050919050565b6001816000016000828254019250508190555050565b6040518060c0016040528060608152602001600081526020016000815260200160008152602001600081526020016000151581525090565b8280546110a390611969565b90600052602060002090601f0160209004810192826110c5576000855561110c565b82601f106110de57805160ff191683800117855561110c565b8280016001018555821561110c579182015b8281111561110b5782518255916020019190600101906110f0565b5b5090506111199190611181565b5090565b6040518060c00160405280606081526020016060815260200160008152602001600073ffffffffffffffffffffffffffffffffffffffff168152602001600073ffffffffffffffffffffffffffffffffffffffff1681526020016000151581525090565b5b8082111561119a576000816000905550600101611182565b5090565b6000604051905090565b600080fd5b600080fd5b600073ffffffffffffffffffffffffffffffffffffffff82169050919050565b60006111dd826111b2565b9050919050565b6111ed816111d2565b81146111f857600080fd5b50565b60008135905061120a816111e4565b92915050565b600060208284031215611226576112256111a8565b5b6000611234848285016111fb565b91505092915050565b600081519050919050565b600082825260208201905092915050565b6000819050602082019050919050565b600081519050919050565b600082825260208201905092915050565b60005b838110156112a3578082015181840152602081019050611288565b838111156112b2576000848401525b50505050565b6000601f19601f8301169050919050565b60006112d482611269565b6112de8185611274565b93506112ee818560208601611285565b6112f7816112b8565b840191505092915050565b600061130e83836112c9565b905092915050565b6000602082019050919050565b600061132e8261123d565b6113388185611248565b93508360208202850161134a85611259565b8060005b8581101561138657848403895281516113678582611302565b945061137283611316565b925060208a0199505060018101905061134e565b50829750879550505050505092915050565b600060208201905081810360008301526113b28184611323565b905092915050565b6000819050919050565b6113cd816113ba565b81146113d857600080fd5b50565b6000813590506113ea816113c4565b92915050565b600060208284031215611406576114056111a8565b5b6000611414848285016113db565b91505092915050565b600082825260208201905092915050565b600061143982611269565b611443818561141d565b9350611453818560208601611285565b61145c816112b8565b840191505092915050565b60006020820190508181036000830152611481818461142e565b905092915050565b600080fd5b600080fd5b7f4e487b7100000000000000000000000000000000000000000000000000000000600052604160045260246000fd5b6114cb826112b8565b810181811067ffffffffffffffff821117156114ea576114e9611493565b5b80604052505050565b60006114fd61119e565b905061150982826114c2565b919050565b600067ffffffffffffffff82111561152957611528611493565b5b611532826112b8565b9050602081019050919050565b82818337600083830152505050565b600061156161155c8461150e565b6114f3565b90508281526020810184848401111561157d5761157c61148e565b5b61158884828561153f565b509392505050565b600082601f8301126115a5576115a4611489565b5b81356115b584826020860161154e565b91505092915050565b6000602082840312156115d4576115d36111a8565b5b600082013567ffffffffffffffff8111156115f2576115f16111ad565b5b6115fe84828501611590565b91505092915050565b611610816113ba565b82525050565b60008115159050919050565b61162b81611616565b82525050565b600060c083016000830151848203600086015261164e82826112c9565b91505060208301516116636020860182611607565b5060408301516116766040860182611607565b5060608301516116896060860182611607565b50608083015161169c6080860182611607565b5060a08301516116af60a0860182611622565b508091505092915050565b600060208201905081810360008301526116d48184611631565b905092915050565b6116e5816113ba565b82525050565b600060208201905061170060008301846116dc565b92915050565b600080600080608085870312156117205761171f6111a8565b5b600085013567ffffffffffffffff81111561173e5761173d6111ad565b5b61174a87828801611590565b945050602085013567ffffffffffffffff81111561176b5761176a6111ad565b5b61177787828801611590565b9350506040611788878288016113db565b9250506060611799878288016111fb565b91505092959194509250565b600080604083850312156117bc576117bb6111a8565b5b600083013567ffffffffffffffff8111156117da576117d96111ad565b5b6117e685828601611590565b92505060206117f7858286016113db565b9150509250929050565b60008060408385031215611818576118176111a8565b5b600083013567ffffffffffffffff811115611836576118356111ad565b5b61184285828601611590565b925050602083013567ffffffffffffffff811115611863576118626111ad565b5b61186f85828601611590565b9150509250929050565b611882816111d2565b82525050565b600060c08301600083015184820360008601526118a582826112c9565b915050602083015184820360208601526118bf82826112c9565b91505060408301516118d46040860182611607565b5060608301516118e76060860182611879565b5060808301516118fa6080860182611879565b5060a083015161190d60a0860182611622565b508091505092915050565b600060208201905081810360008301526119328184611888565b905092915050565b7f4e487b7100000000000000000000000000000000000000000000000000000000600052602260045260246000fd5b6000600282049050600182168061198157607f821691505b602082108114156119955761199461193a565b5b50919050565b600081905092915050565b60006119b182611269565b6119bb818561199b565b93506119cb818560208601611285565b80840191505092915050565b60006119e382846119a6565b915081905092915050565b7f596f7520617265206e6f742061646d696e206f662074686520636f6e7472616360008201527f7400000000000000000000000000000000000000000000000000000000000000602082015250565b6000611a4a60218361141d565b9150611a55826119ee565b604082019050919050565b60006020820190508181036000830152611a7981611a3d565b9050919050565b7f4d6f64656c206e616d6520697320616c7265616479206578697374732e506c6560008201527f6173652075736520616e6f74686572206d6f64656c206e616d652e0000000000602082015250565b6000611adc603b8361141d565b9150611ae782611a80565b604082019050919050565b60006020820190508181036000830152611b0b81611acf565b9050919050565b7f4d6f64656c206e616d65206973206e6f74206578697374732e506c656173652060008201527f75736520616e6f74686572206d6f64656c000000000000000000000000000000602082015250565b6000611b6e60318361141d565b9150611b7982611b12565b604082019050919050565b60006020820190508181036000830152611b9d81611b61565b9050919050565b7f4e487b7100000000000000000000000000000000000000000000000000000000600052601160045260246000fd5b6000611bde826113ba565b9150611be9836113ba565b9250817fffffffffffffffffffffffffffffffffffffffffffffffffffffffffffffffff0483118215151615611c2257611c21611ba4565b5b828202905092915050565b7f596f7520646f206e6f74206861766520656e6f75676820616d6f756e7420746f60008201527f2062757920726571756972656420637265646974730000000000000000000000602082015250565b6000611c8960358361141d565b9150611c9482611c2d565b604082019050919050565b60006020820190508181036000830152611cb881611c7c565b9050919050565b6000611cca826113ba565b9150611cd5836113ba565b9250827fffffffffffffffffffffffffffffffffffffffffffffffffffffffffffffffff03821115611d0a57611d09611ba4565b5b828201905092915050565b7f4d6f64656c20697320616c72656164792070757263686173656420627920796f60008201527f7500000000000000000000000000000000000000000000000000000000000000602082015250565b6000611d7160218361141d565b9150611d7c82611d15565b604082019050919050565b60006020820190508181036000830152611da081611d64565b9050919050565b7f5265717569726564206d696e696d756d2066656520616d6f756e740000000000600082015250565b6000611ddd601b8361141d565b9150611de882611da7565b602082019050919050565b60006020820190508181036000830152611e0c81611dd0565b905091905056fea2646970667358221220ad6df5b33be0d11aa490acebaab8eed28610e89fbe7427e6239986d99a320bae64736f6c634300080a0033",
  "immutableReferences": {},
  "source": "// SPDX-License-Identifier: GPL-3.0\r\n\r\npragma solidity >=0.8.2 <0.9.0;\r\n\r\nimport \"@openzeppelin/contracts/access/Ownable.sol\";\r\nimport \"@openzeppelin/contracts/utils/Counters.sol\";\r\n\r\n/**\r\n * @title AIMarketPlace\r\n */\r\ncontract AIMarketPlace {\r\n    using Counters for Counters.Counter;\r\n    Counters.Counter public totalModel;\r\n\r\n    address private admin;\r\n    uint256 private creditrate;\r\n\r\n    struct model {\r\n        string modelname;\r\n        string cid;\r\n        uint256 fee;\r\n        address verifier;\r\n        address creator;\r\n        bool status;\r\n    }\r\n\r\n    struct modelUse {\r\n        string modelname;\r\n        uint256 onChainRequest;\r\n        uint256 offChainRequest;\r\n        uint256 totalRequest;\r\n        uint256 totalAmount;\r\n        bool status;\r\n    }\r\n\r\n    struct modelArray {\r\n        string[] modelname;\r\n    }\r\n\r\n    struct modelUseArray {\r\n        string[] uuid;\r\n    }\r\n\r\n    string[] public allModels;\r\n    mapping(address=>modelArray) creatorListOfModel;\r\n    mapping(address=>modelUseArray) userListOfModel;\r\n    mapping (string=>modelUse) uuidToUseModel;\r\n    mapping(string=>model) modelObj;\r\n    mapping(string=>uint256) public modelUseCount;\r\n\r\n    constructor() {\r\n        admin = msg.sender;\r\n        creditrate = 100000000000000; //0.0001 FTX\r\n    }\r\n\r\n    function createModel(string memory _modelname,string memory _cid,uint256 _fee,address _verifier) public {\r\n        require(!modelObj[_modelname].status,'Model name is already exists.Please use another model name.');\r\n        modelObj[_modelname] = model({\r\n            modelname:_modelname,\r\n            cid:_cid,\r\n            fee:_fee,\r\n            verifier:_verifier,\r\n            creator: msg.sender,\r\n            status: true\r\n        });\r\n\r\n        creatorListOfModel[msg.sender].modelname.push(_modelname);\r\n        allModels.push(_modelname);\r\n        totalModel.increment();\r\n    }\r\n\r\n    // function updateVerifier(string memory _modelname,address _verifier) public {\r\n    //     require(modelObj[_modelname].creator == msg.sender,'You are not creator of the model');\r\n    //     modelObj[_modelname].verifier = _verifier;\r\n    // }\r\n\r\n    function useModel(string memory _modelname,string memory _uuid) public payable {\r\n        require(!uuidToUseModel[_uuid].status,'Model is already purchased by you');\r\n        require(modelObj[_modelname].status,'Model name is not exists.Please use another model');\r\n        require(modelObj[_modelname].fee == msg.value,'Required minimum fee amount');\r\n        uuidToUseModel[_uuid] = modelUse({\r\n            modelname: _modelname,\r\n            onChainRequest: 0,\r\n            offChainRequest: 0,\r\n            totalRequest: 10,\r\n            totalAmount: 0,\r\n            status:true\r\n        });\r\n\r\n        modelUseCount[_modelname] += 1;\r\n\r\n        userListOfModel[msg.sender].uuid.push(_uuid);\r\n    }\r\n\r\n    function buyCredit(string memory _uuid, uint256 _newCredit) public payable {\r\n        require(uuidToUseModel[_uuid].status,'Model name is not exists.Please use another model');\r\n        require(msg.value >= _newCredit * creditrate ,'You do not have enough amount to buy required credits');\r\n        uuidToUseModel[_uuid].totalRequest += _newCredit;\r\n        uuidToUseModel[_uuid].totalAmount += (_newCredit * creditrate);\r\n\r\n    }\r\n\r\n    function getCreatorModel(address _creator) public view returns(string[] memory) {\r\n        return(creatorListOfModel[_creator].modelname);\r\n    }\r\n\r\n    function getUserModel(address _user) public view returns(string[] memory) {\r\n        return(userListOfModel[_user].uuid);\r\n    }\r\n\r\n    function getDetailsUUID(string memory _uuid) public view returns(modelUse memory) {\r\n        return(uuidToUseModel[_uuid]);\r\n    }\r\n\r\n    function getModel(string memory _modelname) public view returns(model memory) {\r\n        return(modelObj[_modelname]);\r\n    }\r\n\r\n    function updateCreditRate(uint256 _creditrate) public {\r\n        require(admin == msg.sender,'You are not admin of the contract');\r\n        creditrate = _creditrate;\r\n    }\r\n\r\n}",
  "sourcePath": "E:\\Blockchain\\AI\\AIMPContract\\contracts\\AIMarketPlace.sol",
  "compiler": {
    "name": "solc",
    "version": "0.8.10+commit.fc410830.Emscripten.clang"
  },
  "schemaVersion": "3.4.3",
  "updatedAt": "2024-07-04T04:37:37.434Z",
  "devdoc": {
    "kind": "dev",
    "methods": {},
    "title": "AIMarketPlace",
    "version": 1
  },
  "userdoc": {
    "kind": "user",
    "methods": {},
    "version": 1
  }
}